{
  "contractName": "Wallets",
  "abi": [
    {
      "constant": true,
      "inputs": [],
      "name": "name",
      "outputs": [
        {
          "name": "",
          "type": "string"
        }
      ],
      "payable": false,
      "stateMutability": "view",
      "type": "function"
    },
    {
      "constant": true,
      "inputs": [
        {
          "name": "",
          "type": "address"
        },
        {
          "name": "",
          "type": "address"
        }
      ],
      "name": "wallets",
      "outputs": [
        {
          "name": "",
          "type": "uint256"
        }
      ],
      "payable": false,
      "stateMutability": "view",
      "type": "function"
    },
    {
      "constant": false,
      "inputs": [],
      "name": "renounceOwnership",
      "outputs": [],
      "payable": false,
      "stateMutability": "nonpayable",
      "type": "function"
    },
    {
      "constant": true,
      "inputs": [
        {
          "name": "",
          "type": "address"
        },
        {
          "name": "",
          "type": "uint256"
        }
      ],
      "name": "reverseWallets",
      "outputs": [
        {
          "name": "",
          "type": "address"
        }
      ],
      "payable": false,
      "stateMutability": "view",
      "type": "function"
    },
    {
      "constant": true,
      "inputs": [],
      "name": "owner",
      "outputs": [
        {
          "name": "",
          "type": "address"
        }
      ],
      "payable": false,
      "stateMutability": "view",
      "type": "function"
    },
    {
      "constant": true,
      "inputs": [],
      "name": "isOwner",
      "outputs": [
        {
          "name": "",
          "type": "bool"
        }
      ],
      "payable": false,
      "stateMutability": "view",
      "type": "function"
    },
    {
      "constant": true,
      "inputs": [
        {
          "name": "contractName",
          "type": "string"
        },
        {
          "name": "migrationId",
          "type": "string"
        }
      ],
      "name": "isMigrated",
      "outputs": [
        {
          "name": "",
          "type": "bool"
        }
      ],
      "payable": false,
      "stateMutability": "view",
      "type": "function"
    },
    {
      "constant": true,
      "inputs": [
        {
          "name": "",
          "type": "address"
        }
      ],
      "name": "numWallets",
      "outputs": [
        {
          "name": "",
          "type": "uint256"
        }
      ],
      "payable": false,
      "stateMutability": "view",
      "type": "function"
    },
    {
      "constant": false,
      "inputs": [
        {
          "name": "newOwner",
          "type": "address"
        }
      ],
      "name": "transferOwnership",
      "outputs": [],
      "payable": false,
      "stateMutability": "nonpayable",
      "type": "function"
    },
    {
      "constant": true,
      "inputs": [
        {
          "name": "",
          "type": "address"
        }
      ],
      "name": "originalTokens",
      "outputs": [
        {
          "name": "",
          "type": "bool"
        }
      ],
      "payable": false,
      "stateMutability": "view",
      "type": "function"
    },
    {
      "anonymous": false,
      "inputs": [
        {
          "indexed": false,
          "name": "_account",
          "type": "address"
        },
        {
          "indexed": false,
          "name": "_addressToken",
          "type": "address"
        }
      ],
      "name": "AddWallet",
      "type": "event"
    },
    {
      "anonymous": false,
      "inputs": [
        {
          "indexed": false,
          "name": "_account",
          "type": "address"
        },
        {
          "indexed": false,
          "name": "_addressToken",
          "type": "address"
        }
      ],
      "name": "RemoveWallet",
      "type": "event"
    },
    {
      "anonymous": false,
      "inputs": [
        {
          "indexed": false,
          "name": "contractName",
          "type": "string"
        },
        {
          "indexed": false,
          "name": "migrationId",
          "type": "string"
        }
      ],
      "name": "Migrated",
      "type": "event"
    },
    {
      "anonymous": false,
      "inputs": [
        {
          "indexed": true,
          "name": "previousOwner",
          "type": "address"
        }
      ],
      "name": "OwnershipRenounced",
      "type": "event"
    },
    {
      "anonymous": false,
      "inputs": [
        {
          "indexed": true,
          "name": "previousOwner",
          "type": "address"
        },
        {
          "indexed": true,
          "name": "newOwner",
          "type": "address"
        }
      ],
      "name": "OwnershipTransferred",
      "type": "event"
    },
    {
      "constant": false,
      "inputs": [],
      "name": "initialize",
      "outputs": [],
      "payable": false,
      "stateMutability": "nonpayable",
      "type": "function"
    },
    {
      "constant": false,
      "inputs": [
        {
          "name": "_addressToken",
          "type": "address"
        }
      ],
      "name": "addOriginalToken",
      "outputs": [],
      "payable": false,
      "stateMutability": "nonpayable",
      "type": "function"
    },
    {
      "constant": false,
      "inputs": [
        {
          "name": "_addressToken",
          "type": "address"
        }
      ],
      "name": "removeOriginalToken",
      "outputs": [],
      "payable": false,
      "stateMutability": "nonpayable",
      "type": "function"
    },
    {
      "constant": false,
      "inputs": [
        {
          "name": "_addressToken",
          "type": "address"
        }
      ],
      "name": "addWallet",
      "outputs": [],
      "payable": false,
      "stateMutability": "nonpayable",
      "type": "function"
    },
    {
      "constant": false,
      "inputs": [
        {
          "name": "_account",
          "type": "address"
        },
        {
          "name": "_addressToken",
          "type": "address"
        }
      ],
      "name": "addWalletFrom",
      "outputs": [],
      "payable": false,
      "stateMutability": "nonpayable",
      "type": "function"
    },
    {
      "constant": false,
      "inputs": [
        {
          "name": "_addressToken",
          "type": "address"
        }
      ],
      "name": "removeWallet",
      "outputs": [],
      "payable": false,
      "stateMutability": "nonpayable",
      "type": "function"
    },
    {
      "constant": false,
      "inputs": [
        {
          "name": "_account",
          "type": "address"
        },
        {
          "name": "_addressToken",
          "type": "address"
        }
      ],
      "name": "removeWalletFrom",
      "outputs": [],
      "payable": false,
      "stateMutability": "nonpayable",
      "type": "function"
    },
    {
      "constant": true,
      "inputs": [
        {
          "name": "_account",
          "type": "address"
        }
      ],
      "name": "getWalletsAddress",
      "outputs": [
        {
          "name": "",
          "type": "address[]"
        }
      ],
      "payable": false,
      "stateMutability": "view",
      "type": "function"
    },
    {
      "constant": true,
      "inputs": [
        {
          "name": "_account",
          "type": "address"
        },
        {
          "name": "_addressToken",
          "type": "address"
        }
      ],
      "name": "getWalletByAddressContract",
      "outputs": [
        {
          "name": "",
          "type": "string"
        },
        {
          "name": "",
          "type": "string"
        },
        {
          "name": "",
          "type": "uint8"
        },
        {
          "name": "",
          "type": "uint256"
        },
        {
          "name": "",
          "type": "bool"
        }
      ],
      "payable": false,
      "stateMutability": "view",
      "type": "function"
    },
    {
      "constant": true,
      "inputs": [
        {
          "name": "_account",
          "type": "address"
        },
        {
          "name": "_index",
          "type": "uint256"
        }
      ],
      "name": "getWalletByIndex",
      "outputs": [
        {
          "name": "",
          "type": "string"
        },
        {
          "name": "",
          "type": "string"
        },
        {
          "name": "",
          "type": "uint8"
        },
        {
          "name": "",
          "type": "uint256"
        },
        {
          "name": "",
          "type": "bool"
        }
      ],
      "payable": false,
      "stateMutability": "view",
      "type": "function"
    },
    {
      "constant": true,
      "inputs": [
        {
          "name": "_addressToken",
          "type": "address"
        }
      ],
      "name": "isOriginal",
      "outputs": [
        {
          "name": "",
          "type": "bool"
        }
      ],
      "payable": false,
      "stateMutability": "view",
      "type": "function"
    }
  ],
  "bytecode": "0x6080604052336000806101000a81548173ffffffffffffffffffffffffffffffffffffffff021916908373ffffffffffffffffffffffffffffffffffffffff1602179055506130ff806100536000396000f30060806040526004361061011d576000357c0100000000000000000000000000000000000000000000000000000000900463ffffffff1680630139956b1461012257806306fdde0314610165578063494bd152146101f5578063586d37df1461035c5780636a3bfde5146103bf578063715018a614610436578063736811861461044d57806379be659e146104da5780638129fc1c146105355780638da5cb5b1461054c5780638f32d59b146105a35780639744e31c146105d2578063a75fe8e114610615578063c0bac1a814610658578063c9bdf6e01461071f578063cb0adda414610782578063eb5c5320146107d9578063efeb5f1f1461092a578063f071cfee1461096d578063f2fde38b14610a05578063f74032f014610a48575b600080fd5b34801561012e57600080fd5b50610163600480360381019080803573ffffffffffffffffffffffffffffffffffffffff169060200190929190505050610aa3565b005b34801561017157600080fd5b5061017a610e7c565b6040518080602001828103825283818151815260200191508051906020019080838360005b838110156101ba57808201518184015260208101905061019f565b50505050905090810190601f1680156101e75780820380516001836020036101000a031916815260200191505b509250505060405180910390f35b34801561020157600080fd5b50610256600480360381019080803573ffffffffffffffffffffffffffffffffffffffff169060200190929190803573ffffffffffffffffffffffffffffffffffffffff169060200190929190505050610eb5565b6040518080602001806020018660ff1660ff16815260200185815260200184151515158152602001838103835288818151815260200191508051906020019080838360005b838110156102b657808201518184015260208101905061029b565b50505050905090810190601f1680156102e35780820380516001836020036101000a031916815260200191505b50838103825287818151815260200191508051906020019080838360005b8381101561031c578082015181840152602081019050610301565b50505050905090810190601f1680156103495780820380516001836020036101000a031916815260200191505b5097505050505050505060405180910390f35b34801561036857600080fd5b506103bd600480360381019080803573ffffffffffffffffffffffffffffffffffffffff169060200190929190803573ffffffffffffffffffffffffffffffffffffffff169060200190929190505050611282565b005b3480156103cb57600080fd5b50610420600480360381019080803573ffffffffffffffffffffffffffffffffffffffff169060200190929190803573ffffffffffffffffffffffffffffffffffffffff1690602001909291905050506112a3565b6040518082815260200191505060405180910390f35b34801561044257600080fd5b5061044b6112c8565b005b34801561045957600080fd5b50610498600480360381019080803573ffffffffffffffffffffffffffffffffffffffff16906020019092919080359060200190929190505050611382565b604051808273ffffffffffffffffffffffffffffffffffffffff1673ffffffffffffffffffffffffffffffffffffffff16815260200191505060405180910390f35b3480156104e657600080fd5b5061051b600480360381019080803573ffffffffffffffffffffffffffffffffffffffff1690602001909291905050506113c4565b604051808215151515815260200191505060405180910390f35b34801561054157600080fd5b5061054a61141a565b005b34801561055857600080fd5b506105616117e9565b604051808273ffffffffffffffffffffffffffffffffffffffff1673ffffffffffffffffffffffffffffffffffffffff16815260200191505060405180910390f35b3480156105af57600080fd5b506105b8611812565b604051808215151515815260200191505060405180910390f35b3480156105de57600080fd5b50610613600480360381019080803573ffffffffffffffffffffffffffffffffffffffff169060200190929190505050611869565b005b34801561062157600080fd5b50610656600480360381019080803573ffffffffffffffffffffffffffffffffffffffff1690602001909291905050506118d7565b005b34801561066457600080fd5b50610705600480360381019080803590602001908201803590602001908080601f0160208091040260200160405190810160405280939291908181526020018383808284378201915050505050509192919290803590602001908201803590602001908080601f01602080910402602001604051908101604052809392919081815260200183838082843782019150505050505091929192905050506118e4565b604051808215151515815260200191505060405180910390f35b34801561072b57600080fd5b50610780600480360381019080803573ffffffffffffffffffffffffffffffffffffffff169060200190929190803573ffffffffffffffffffffffffffffffffffffffff1690602001909291905050506119d0565b005b34801561078e57600080fd5b506107c3600480360381019080803573ffffffffffffffffffffffffffffffffffffffff1690602001909291905050506119f1565b6040518082815260200191505060405180910390f35b3480156107e557600080fd5b50610824600480360381019080803573ffffffffffffffffffffffffffffffffffffffff16906020019092919080359060200190929190505050611a09565b6040518080602001806020018660ff1660ff16815260200185815260200184151515158152602001838103835288818151815260200191508051906020019080838360005b83811015610884578082015181840152602081019050610869565b50505050905090810190601f1680156108b15780820380516001836020036101000a031916815260200191505b50838103825287818151815260200191508051906020019080838360005b838110156108ea5780820151818401526020810190506108cf565b50505050905090810190601f1680156109175780820380516001836020036101000a031916815260200191505b5097505050505050505060405180910390f35b34801561093657600080fd5b5061096b600480360381019080803573ffffffffffffffffffffffffffffffffffffffff169060200190929190505050611eb6565b005b34801561097957600080fd5b506109ae600480360381019080803573ffffffffffffffffffffffffffffffffffffffff169060200190929190505050611ec3565b6040518080602001828103825283818151815260200191508051906020019060200280838360005b838110156109f15780820151818401526020810190506109d6565b505050509050019250505060405180910390f35b348015610a1157600080fd5b50610a46600480360381019080803573ffffffffffffffffffffffffffffffffffffffff16906020019092919050505061205b565b005b348015610a5457600080fd5b50610a89600480360381019080803573ffffffffffffffffffffffffffffffffffffffff16906020019092919050505061207a565b604051808215151515815260200191505060405180910390f35b610aab611812565b1515610ab657600080fd5b8060008190508073ffffffffffffffffffffffffffffffffffffffff166306fdde036040518163ffffffff167c0100000000000000000000000000000000000000000000000000000000028152600401600060405180830381600087803b158015610b2057600080fd5b505af1158015610b34573d6000803e3d6000fd5b505050506040513d6000823e3d601f19601f820116820180604052506020811015610b5e57600080fd5b810190808051640100000000811115610b7657600080fd5b82810190506020810184811115610b8c57600080fd5b8151856001820283011164010000000082111715610ba957600080fd5b5050929190505050508073ffffffffffffffffffffffffffffffffffffffff166395d89b416040518163ffffffff167c0100000000000000000000000000000000000000000000000000000000028152600401600060405180830381600087803b158015610c1657600080fd5b505af1158015610c2a573d6000803e3d6000fd5b505050506040513d6000823e3d601f19601f820116820180604052506020811015610c5457600080fd5b810190808051640100000000811115610c6c57600080fd5b82810190506020810184811115610c8257600080fd5b8151856001820283011164010000000082111715610c9f57600080fd5b5050929190505050508073ffffffffffffffffffffffffffffffffffffffff1663313ce5676040518163ffffffff167c0100000000000000000000000000000000000000000000000000000000028152600401602060405180830381600087803b158015610d0c57600080fd5b505af1158015610d20573d6000803e3d6000fd5b505050506040513d6020811015610d3657600080fd5b8101908080519060200190929190505050508073ffffffffffffffffffffffffffffffffffffffff166370a08231836040518263ffffffff167c0100000000000000000000000000000000000000000000000000000000028152600401808273ffffffffffffffffffffffffffffffffffffffff1673ffffffffffffffffffffffffffffffffffffffff168152602001915050602060405180830381600087803b158015610de357600080fd5b505af1158015610df7573d6000803e3d6000fd5b505050506040513d6020811015610e0d57600080fd5b8101908080519060200190929190505050506001600560008573ffffffffffffffffffffffffffffffffffffffff1673ffffffffffffffffffffffffffffffffffffffff16815260200190815260200160002060006101000a81548160ff021916908315150217905550505050565b6040805190810160405280600781526020017f57616c6c6574730000000000000000000000000000000000000000000000000081525081565b6060806000806000808690508073ffffffffffffffffffffffffffffffffffffffff166306fdde036040518163ffffffff167c0100000000000000000000000000000000000000000000000000000000028152600401600060405180830381600087803b158015610f2557600080fd5b505af1158015610f39573d6000803e3d6000fd5b505050506040513d6000823e3d601f19601f820116820180604052506020811015610f6357600080fd5b810190808051640100000000811115610f7b57600080fd5b82810190506020810184811115610f9157600080fd5b8151856001820283011164010000000082111715610fae57600080fd5b50509291905050508173ffffffffffffffffffffffffffffffffffffffff166395d89b416040518163ffffffff167c0100000000000000000000000000000000000000000000000000000000028152600401600060405180830381600087803b15801561101a57600080fd5b505af115801561102e573d6000803e3d6000fd5b505050506040513d6000823e3d601f19601f82011682018060405250602081101561105857600080fd5b81019080805164010000000081111561107057600080fd5b8281019050602081018481111561108657600080fd5b81518560018202830111640100000000821117156110a357600080fd5b50509291905050508273ffffffffffffffffffffffffffffffffffffffff1663313ce5676040518163ffffffff167c0100000000000000000000000000000000000000000000000000000000028152600401602060405180830381600087803b15801561110f57600080fd5b505af1158015611123573d6000803e3d6000fd5b505050506040513d602081101561113957600080fd5b81019080805190602001909291905050508373ffffffffffffffffffffffffffffffffffffffff166370a082318c6040518263ffffffff167c0100000000000000000000000000000000000000000000000000000000028152600401808273ffffffffffffffffffffffffffffffffffffffff1673ffffffffffffffffffffffffffffffffffffffff168152602001915050602060405180830381600087803b1580156111e557600080fd5b505af11580156111f9573d6000803e3d6000fd5b505050506040513d602081101561120f57600080fd5b8101908080519060200190929190505050600560008c73ffffffffffffffffffffffffffffffffffffffff1673ffffffffffffffffffffffffffffffffffffffff16815260200190815260200160002060009054906101000a900460ff1695509550955095509550509295509295909350565b61128a611812565b151561129557600080fd5b61129f828261209a565b5050565b6002602052816000526040600020602052806000526040600020600091509150505481565b6112d0611812565b15156112db57600080fd5b6000809054906101000a900473ffffffffffffffffffffffffffffffffffffffff1673ffffffffffffffffffffffffffffffffffffffff167ff8df31144d9c2f0f6b59d69b8b98abd5459d07f2742c4df920b25aae33c6482060405160405180910390a260008060006101000a81548173ffffffffffffffffffffffffffffffffffffffff021916908373ffffffffffffffffffffffffffffffffffffffff160217905550565b60036020528160005260406000206020528060005260406000206000915091509054906101000a900473ffffffffffffffffffffffffffffffffffffffff1681565b6000600560008373ffffffffffffffffffffffffffffffffffffffff1673ffffffffffffffffffffffffffffffffffffffff16815260200190815260200160002060009054906101000a900460ff169050919050565b6040805190810160405280600781526020017f57616c6c657473000000000000000000000000000000000000000000000000008152506040805190810160405280600181526020017f30000000000000000000000000000000000000000000000000000000000000008152506114c5826040805190810160405280600b81526020017f696e697469616c697a6564000000000000000000000000000000000000000000815250612788565b6114cf8282612788565b7fdd117a11c22118c9dee4b5a67ce578bc44529dce21ee0ccc439588fbb9fb4ea38282604051808060200180602001838103835285818151815260200191508051906020019080838360005b8381101561153657808201518184015260208101905061151b565b50505050905090810190601f1680156115635780820380516001836020036101000a031916815260200191505b50838103825284818151815260200191508051906020019080838360005b8381101561159c578082015181840152602081019050611581565b50505050905090810190601f1680156115c95780820380516001836020036101000a031916815260200191505b5094505050505060405180910390a1600180836040518082805190602001908083835b60208310151561161157805182526020820191506020810190506020830392506115ec565b6001836020036101000a0380198251168184511680821785525050505050509050019150509081526020016040518091039020826040518082805190602001908083835b60208310151561167a5780518252602082019150602081019050602083039250611655565b6001836020036101000a038019825116818451168082178552505050505050905001915050908152602001604051809103902060006101000a81548160ff021916908315150217905550600180836040518082805190602001908083835b6020831015156116fd57805182526020820191506020810190506020830392506116d8565b6001836020036101000a03801982511681845116808217855250505050505090500191505090815260200160405180910390206040805190810160405280600b81526020017f696e697469616c697a65640000000000000000000000000000000000000000008152506040518082805190602001908083835b60208310151561179b5780518252602082019150602081019050602083039250611776565b6001836020036101000a038019825116818451168082178552505050505050905001915050908152602001604051809103902060006101000a81548160ff0219169083151502179055505050565b60008060009054906101000a900473ffffffffffffffffffffffffffffffffffffffff16905090565b60008060009054906101000a900473ffffffffffffffffffffffffffffffffffffffff1673ffffffffffffffffffffffffffffffffffffffff163373ffffffffffffffffffffffffffffffffffffffff1614905090565b611871611812565b151561187c57600080fd5b6000600560008373ffffffffffffffffffffffffffffffffffffffff1673ffffffffffffffffffffffffffffffffffffffff16815260200190815260200160002060006101000a81548160ff02191690831515021790555050565b6118e13382612831565b50565b60006001836040518082805190602001908083835b60208310151561191e57805182526020820191506020810190506020830392506118f9565b6001836020036101000a0380198251168184511680821785525050505050509050019150509081526020016040518091039020826040518082805190602001908083835b6020831015156119875780518252602082019150602081019050602083039250611962565b6001836020036101000a038019825116818451168082178552505050505050905001915050908152602001604051809103902060009054906101000a900460ff16905092915050565b6119d8611812565b15156119e357600080fd5b6119ed8282612831565b5050565b60046020528060005260406000206000915090505481565b606080600080600080600360008973ffffffffffffffffffffffffffffffffffffffff1673ffffffffffffffffffffffffffffffffffffffff168152602001908152602001600020600088815260200190815260200160002060009054906101000a900473ffffffffffffffffffffffffffffffffffffffff1690508073ffffffffffffffffffffffffffffffffffffffff166306fdde036040518163ffffffff167c0100000000000000000000000000000000000000000000000000000000028152600401600060405180830381600087803b158015611ae957600080fd5b505af1158015611afd573d6000803e3d6000fd5b505050506040513d6000823e3d601f19601f820116820180604052506020811015611b2757600080fd5b810190808051640100000000811115611b3f57600080fd5b82810190506020810184811115611b5557600080fd5b8151856001820283011164010000000082111715611b7257600080fd5b50509291905050508173ffffffffffffffffffffffffffffffffffffffff166395d89b416040518163ffffffff167c0100000000000000000000000000000000000000000000000000000000028152600401600060405180830381600087803b158015611bde57600080fd5b505af1158015611bf2573d6000803e3d6000fd5b505050506040513d6000823e3d601f19601f820116820180604052506020811015611c1c57600080fd5b810190808051640100000000811115611c3457600080fd5b82810190506020810184811115611c4a57600080fd5b8151856001820283011164010000000082111715611c6757600080fd5b50509291905050508273ffffffffffffffffffffffffffffffffffffffff1663313ce5676040518163ffffffff167c0100000000000000000000000000000000000000000000000000000000028152600401602060405180830381600087803b158015611cd357600080fd5b505af1158015611ce7573d6000803e3d6000fd5b505050506040513d6020811015611cfd57600080fd5b81019080805190602001909291905050508373ffffffffffffffffffffffffffffffffffffffff166370a082318c6040518263ffffffff167c0100000000000000000000000000000000000000000000000000000000028152600401808273ffffffffffffffffffffffffffffffffffffffff1673ffffffffffffffffffffffffffffffffffffffff168152602001915050602060405180830381600087803b158015611da957600080fd5b505af1158015611dbd573d6000803e3d6000fd5b505050506040513d6020811015611dd357600080fd5b810190808051906020019092919050505060056000600360008f73ffffffffffffffffffffffffffffffffffffffff1673ffffffffffffffffffffffffffffffffffffffff16815260200190815260200160002060008e815260200190815260200160002060009054906101000a900473ffffffffffffffffffffffffffffffffffffffff1673ffffffffffffffffffffffffffffffffffffffff1673ffffffffffffffffffffffffffffffffffffffff16815260200190815260200160002060009054906101000a900460ff1695509550955095509550509295509295909350565b611ec0338261209a565b50565b6060806000600460008573ffffffffffffffffffffffffffffffffffffffff1673ffffffffffffffffffffffffffffffffffffffff16815260200190815260200160002054604051908082528060200260200182016040528015611f365781602001602082028038833980820191505090505b509150600190505b600460008573ffffffffffffffffffffffffffffffffffffffff1673ffffffffffffffffffffffffffffffffffffffff168152602001908152602001600020548111151561205157600360008573ffffffffffffffffffffffffffffffffffffffff1673ffffffffffffffffffffffffffffffffffffffff168152602001908152602001600020600082815260200190815260200160002060009054906101000a900473ffffffffffffffffffffffffffffffffffffffff16826001830381518110151561200857fe5b9060200190602002019073ffffffffffffffffffffffffffffffffffffffff16908173ffffffffffffffffffffffffffffffffffffffff16815250508080600101915050611f3e565b8192505050919050565b612063611812565b151561206e57600080fd5b61207781612fd9565b50565b60056020528060005260406000206000915054906101000a900460ff1681565b80600073ffffffffffffffffffffffffffffffffffffffff168173ffffffffffffffffffffffffffffffffffffffff16141515156120d757600080fd5b82600073ffffffffffffffffffffffffffffffffffffffff168173ffffffffffffffffffffffffffffffffffffffff161415151561211457600080fd5b83836000600260008473ffffffffffffffffffffffffffffffffffffffff1673ffffffffffffffffffffffffffffffffffffffff16815260200190815260200160002060008373ffffffffffffffffffffffffffffffffffffffff1673ffffffffffffffffffffffffffffffffffffffff168152602001908152602001600020541415156121a157600080fd5b8460008190508073ffffffffffffffffffffffffffffffffffffffff166306fdde036040518163ffffffff167c0100000000000000000000000000000000000000000000000000000000028152600401600060405180830381600087803b15801561220b57600080fd5b505af115801561221f573d6000803e3d6000fd5b505050506040513d6000823e3d601f19601f82011682018060405250602081101561224957600080fd5b81019080805164010000000081111561226157600080fd5b8281019050602081018481111561227757600080fd5b815185600182028301116401000000008211171561229457600080fd5b5050929190505050508073ffffffffffffffffffffffffffffffffffffffff166395d89b416040518163ffffffff167c0100000000000000000000000000000000000000000000000000000000028152600401600060405180830381600087803b15801561230157600080fd5b505af1158015612315573d6000803e3d6000fd5b505050506040513d6000823e3d601f19601f82011682018060405250602081101561233f57600080fd5b81019080805164010000000081111561235757600080fd5b8281019050602081018481111561236d57600080fd5b815185600182028301116401000000008211171561238a57600080fd5b5050929190505050508073ffffffffffffffffffffffffffffffffffffffff1663313ce5676040518163ffffffff167c0100000000000000000000000000000000000000000000000000000000028152600401602060405180830381600087803b1580156123f757600080fd5b505af115801561240b573d6000803e3d6000fd5b505050506040513d602081101561242157600080fd5b8101908080519060200190929190505050508073ffffffffffffffffffffffffffffffffffffffff166370a08231836040518263ffffffff167c0100000000000000000000000000000000000000000000000000000000028152600401808273ffffffffffffffffffffffffffffffffffffffff1673ffffffffffffffffffffffffffffffffffffffff168152602001915050602060405180830381600087803b1580156124ce57600080fd5b505af11580156124e2573d6000803e3d6000fd5b505050506040513d60208110156124f857600080fd5b810190808051906020019092919050505050600460008973ffffffffffffffffffffffffffffffffffffffff1673ffffffffffffffffffffffffffffffffffffffff16815260200190815260200160002060008154809291906001019190505550600460008973ffffffffffffffffffffffffffffffffffffffff1673ffffffffffffffffffffffffffffffffffffffff16815260200190815260200160002054600260008a73ffffffffffffffffffffffffffffffffffffffff1673ffffffffffffffffffffffffffffffffffffffff16815260200190815260200160002060008973ffffffffffffffffffffffffffffffffffffffff1673ffffffffffffffffffffffffffffffffffffffff1681526020019081526020016000208190555086600360008a73ffffffffffffffffffffffffffffffffffffffff1673ffffffffffffffffffffffffffffffffffffffff1681526020019081526020016000206000600460008c73ffffffffffffffffffffffffffffffffffffffff1673ffffffffffffffffffffffffffffffffffffffff16815260200190815260200160002054815260200190815260200160002060006101000a81548173ffffffffffffffffffffffffffffffffffffffff021916908373ffffffffffffffffffffffffffffffffffffffff1602179055507f4ae52336c8559bea1f0ca6555becd2e2da7a312a364c2407daa18f5f2a6289bc8888604051808373ffffffffffffffffffffffffffffffffffffffff1673ffffffffffffffffffffffffffffffffffffffff1681526020018273ffffffffffffffffffffffffffffffffffffffff1673ffffffffffffffffffffffffffffffffffffffff1681526020019250505060405180910390a15050505050505050565b61279282826118e4565b15151561282d576040517f08c379a00000000000000000000000000000000000000000000000000000000081526004018080602001828103825260328152602001807f52657175657374656420746172676574206d6967726174696f6e20494420686181526020017f7320616c7265616479206265656e2072756e000000000000000000000000000081525060400191505060405180910390fd5b5050565b60008082600073ffffffffffffffffffffffffffffffffffffffff168173ffffffffffffffffffffffffffffffffffffffff161415151561287157600080fd5b84600073ffffffffffffffffffffffffffffffffffffffff168173ffffffffffffffffffffffffffffffffffffffff16141515156128ae57600080fd5b85856000600260008473ffffffffffffffffffffffffffffffffffffffff1673ffffffffffffffffffffffffffffffffffffffff16815260200190815260200160002060008373ffffffffffffffffffffffffffffffffffffffff1673ffffffffffffffffffffffffffffffffffffffff168152602001908152602001600020541415151561293c57600080fd5b8660008190508073ffffffffffffffffffffffffffffffffffffffff166306fdde036040518163ffffffff167c0100000000000000000000000000000000000000000000000000000000028152600401600060405180830381600087803b1580156129a657600080fd5b505af11580156129ba573d6000803e3d6000fd5b505050506040513d6000823e3d601f19601f8201168201806040525060208110156129e457600080fd5b8101908080516401000000008111156129fc57600080fd5b82810190506020810184811115612a1257600080fd5b8151856001820283011164010000000082111715612a2f57600080fd5b5050929190505050508073ffffffffffffffffffffffffffffffffffffffff166395d89b416040518163ffffffff167c0100000000000000000000000000000000000000000000000000000000028152600401600060405180830381600087803b158015612a9c57600080fd5b505af1158015612ab0573d6000803e3d6000fd5b505050506040513d6000823e3d601f19601f820116820180604052506020811015612ada57600080fd5b810190808051640100000000811115612af257600080fd5b82810190506020810184811115612b0857600080fd5b8151856001820283011164010000000082111715612b2557600080fd5b5050929190505050508073ffffffffffffffffffffffffffffffffffffffff1663313ce5676040518163ffffffff167c0100000000000000000000000000000000000000000000000000000000028152600401602060405180830381600087803b158015612b9257600080fd5b505af1158015612ba6573d6000803e3d6000fd5b505050506040513d6020811015612bbc57600080fd5b8101908080519060200190929190505050508073ffffffffffffffffffffffffffffffffffffffff166370a08231836040518263ffffffff167c0100000000000000000000000000000000000000000000000000000000028152600401808273ffffffffffffffffffffffffffffffffffffffff1673ffffffffffffffffffffffffffffffffffffffff168152602001915050602060405180830381600087803b158015612c6957600080fd5b505af1158015612c7d573d6000803e3d6000fd5b505050506040513d6020811015612c9357600080fd5b810190808051906020019092919050505050600260008b73ffffffffffffffffffffffffffffffffffffffff1673ffffffffffffffffffffffffffffffffffffffff16815260200190815260200160002060008a73ffffffffffffffffffffffffffffffffffffffff1673ffffffffffffffffffffffffffffffffffffffff168152602001908152602001600020549750600360008b73ffffffffffffffffffffffffffffffffffffffff1673ffffffffffffffffffffffffffffffffffffffff1681526020019081526020016000206000600460008d73ffffffffffffffffffffffffffffffffffffffff1673ffffffffffffffffffffffffffffffffffffffff16815260200190815260200160002054815260200190815260200160002060009054906101000a900473ffffffffffffffffffffffffffffffffffffffff16965087600260008c73ffffffffffffffffffffffffffffffffffffffff1673ffffffffffffffffffffffffffffffffffffffff16815260200190815260200160002060008973ffffffffffffffffffffffffffffffffffffffff1673ffffffffffffffffffffffffffffffffffffffff1681526020019081526020016000208190555086600360008c73ffffffffffffffffffffffffffffffffffffffff1673ffffffffffffffffffffffffffffffffffffffff16815260200190815260200160002060008a815260200190815260200160002060006101000a81548173ffffffffffffffffffffffffffffffffffffffff021916908373ffffffffffffffffffffffffffffffffffffffff160217905550600460008b73ffffffffffffffffffffffffffffffffffffffff1673ffffffffffffffffffffffffffffffffffffffff16815260200190815260200160002060008154809291906001900391905055507f90d5717ce5caf63bab2c4c3b8088c2736cff35c303feef5a95e62073edbf90a58a8a604051808373ffffffffffffffffffffffffffffffffffffffff1673ffffffffffffffffffffffffffffffffffffffff1681526020018273ffffffffffffffffffffffffffffffffffffffff1673ffffffffffffffffffffffffffffffffffffffff1681526020019250505060405180910390a150505050505050505050565b600073ffffffffffffffffffffffffffffffffffffffff168173ffffffffffffffffffffffffffffffffffffffff161415151561301557600080fd5b8073ffffffffffffffffffffffffffffffffffffffff166000809054906101000a900473ffffffffffffffffffffffffffffffffffffffff1673ffffffffffffffffffffffffffffffffffffffff167f8be0079c531659141344cd1fd0a4f28419497f9722a3daafe3b4186f6b6457e060405160405180910390a3806000806101000a81548173ffffffffffffffffffffffffffffffffffffffff021916908373ffffffffffffffffffffffffffffffffffffffff160217905550505600a165627a7a723058200cfe9c5d35a62431aece6e55f7a810a84e97064139138468ebd1b01f30b94c820029",
  "source": "pragma solidity 0.4.24;\n\nimport \"zos-lib/contracts/migrations/Migratable.sol\";\nimport \"openzeppelin-solidity/contracts/ownership/Ownable.sol\";\nimport \"./IERC20.sol\";\n\ncontract Wallets is Ownable, Migratable {\n    string public constant name = \"Wallets\";\n\n    mapping(address => mapping(address => uint)) public wallets;\n    mapping(address => mapping(uint => address)) public reverseWallets;\n    mapping(address => uint) public numWallets;\n    mapping(address => bool) public originalTokens;\n    \n    event AddWallet(address _account, address _addressToken);\n    event RemoveWallet(address _account, address _addressToken);\n    \n    modifier validAddress(address _address) {\n        require(_address != address(0));\n        _;\n    }\n    \n    modifier notExists(address _account, address _addressToken) {\n        require(wallets[_account][_addressToken] == 0);\n        _;\n    }\n    \n    modifier exists(address _account, address _addressToken) {\n        require(wallets[_account][_addressToken] != 0);\n        _;\n    }\n    \n    modifier onlyERC20(address _addressToken) {\n        IERC20 token = IERC20(_addressToken);\n        token.name();\n        token.symbol();\n        token.decimals();\n        token.balanceOf(_addressToken);\n        _;\n    }\n\n    function initialize() isInitializer(\"Wallets\", \"0\") public {\n    }\n    \n    function addOriginalToken(address _addressToken) external onlyOwner onlyERC20(_addressToken) {\n        originalTokens[_addressToken] = true;\n    }\n    \n    function removeOriginalToken(address _addressToken) external onlyOwner {\n        originalTokens[_addressToken] = false;\n    }\n    \n    function addWallet(address _addressToken) external {\n        _addWallet(msg.sender, _addressToken);\n    }\n    \n    function addWalletFrom(address _account, address _addressToken) external onlyOwner {\n        _addWallet(_account, _addressToken);\n    }\n    \n    function removeWallet(address _addressToken) external {\n        _removeWalletByAddress(msg.sender, _addressToken);\n    }\n    \n    function removeWalletFrom(address _account, address _addressToken) external onlyOwner {\n        _removeWalletByAddress(_account, _addressToken);\n    }\n    \n    function getWalletsAddress(address _account) view public returns(address[]) {\n        address[] memory addresses = new address[](numWallets[_account]);\n        for (uint i = 1; i <= numWallets[_account]; i++) {\n            addresses[i-1] = reverseWallets[_account][i];\n        }\n        \n        return addresses;\n    }\n    \n    function getWalletByAddressContract(address _account, address _addressToken) view public returns (string, string, uint8, uint, bool) {\n        IERC20 t = IERC20(_addressToken);\n        \n        return(\n            t.name(),\n            t.symbol(),\n            t.decimals(),\n            t.balanceOf(_account),\n            originalTokens[_addressToken]\n        );\n    }\n    \n    function getWalletByIndex(address _account, uint _index) view public returns (string, string, uint8, uint, bool) {\n        IERC20 t = IERC20(reverseWallets[_account][_index]);\n        \n        return(\n            t.name(),\n            t.symbol(),\n            t.decimals(),\n            t.balanceOf(_account),\n            originalTokens[reverseWallets[_account][_index]]\n        );\n    }\n    \n    function isOriginal(address _addressToken) view public returns (bool) {\n        return originalTokens[_addressToken];\n    }\n    \n    function _addWallet(address _account, address _addressToken)\n        internal\n        validAddress(_addressToken)\n        validAddress(_account)\n        notExists(_account, _addressToken)\n        onlyERC20(_addressToken)\n    {\n        numWallets[_account]++;\n        wallets[_account][_addressToken] = numWallets[_account];\n        reverseWallets[_account][numWallets[_account]] = _addressToken;\n        \n        emit AddWallet(_account, _addressToken);\n    }\n    \n    function _removeWalletByAddress(address _account, address _addressToken)\n        internal\n        validAddress(_addressToken)\n        validAddress(_account)\n        exists(_account, _addressToken)\n        onlyERC20(_addressToken)\n    {\n        uint a = wallets[_account][_addressToken];\n        address l = reverseWallets[_account][numWallets[_account]];\n        \n        wallets[_account][l] = a;\n        reverseWallets[_account][a] = l;\n        \n        numWallets[_account]--;\n        \n        emit RemoveWallet(_account, _addressToken);\n    }\n}",
  "sourcePath": "/Users/user/WebstormProjects/ineurobrain-web/contracts/WalletsSC/contracts/Wallets.sol",
  "compiler": {
    "name": "solc",
    "version": "0.4.24+commit.e67f0147.Emscripten.clang"
  },
  "schemaVersion": "2.0.1",
  "updatedAt": "2018-10-05T03:10:29.464Z"
}