{
  "contractName": "Profiles",
  "abi": [
    {
      "constant": true,
      "inputs": [],
      "name": "name",
      "outputs": [
        {
          "name": "",
          "type": "string"
        }
      ],
      "payable": false,
      "stateMutability": "view",
      "type": "function"
    },
    {
      "constant": false,
      "inputs": [],
      "name": "renounceOwnership",
      "outputs": [],
      "payable": false,
      "stateMutability": "nonpayable",
      "type": "function"
    },
    {
      "constant": true,
      "inputs": [],
      "name": "owner",
      "outputs": [
        {
          "name": "",
          "type": "address"
        }
      ],
      "payable": false,
      "stateMutability": "view",
      "type": "function"
    },
    {
      "constant": true,
      "inputs": [],
      "name": "isOwner",
      "outputs": [
        {
          "name": "",
          "type": "bool"
        }
      ],
      "payable": false,
      "stateMutability": "view",
      "type": "function"
    },
    {
      "constant": true,
      "inputs": [
        {
          "name": "contractName",
          "type": "string"
        },
        {
          "name": "migrationId",
          "type": "string"
        }
      ],
      "name": "isMigrated",
      "outputs": [
        {
          "name": "",
          "type": "bool"
        }
      ],
      "payable": false,
      "stateMutability": "view",
      "type": "function"
    },
    {
      "constant": false,
      "inputs": [
        {
          "name": "newOwner",
          "type": "address"
        }
      ],
      "name": "transferOwnership",
      "outputs": [],
      "payable": false,
      "stateMutability": "nonpayable",
      "type": "function"
    },
    {
      "anonymous": false,
      "inputs": [
        {
          "indexed": false,
          "name": "contractName",
          "type": "string"
        },
        {
          "indexed": false,
          "name": "migrationId",
          "type": "string"
        }
      ],
      "name": "Migrated",
      "type": "event"
    },
    {
      "anonymous": false,
      "inputs": [
        {
          "indexed": true,
          "name": "previousOwner",
          "type": "address"
        }
      ],
      "name": "OwnershipRenounced",
      "type": "event"
    },
    {
      "anonymous": false,
      "inputs": [
        {
          "indexed": true,
          "name": "previousOwner",
          "type": "address"
        },
        {
          "indexed": true,
          "name": "newOwner",
          "type": "address"
        }
      ],
      "name": "OwnershipTransferred",
      "type": "event"
    },
    {
      "constant": false,
      "inputs": [],
      "name": "initialize",
      "outputs": [],
      "payable": false,
      "stateMutability": "nonpayable",
      "type": "function"
    },
    {
      "constant": false,
      "inputs": [
        {
          "name": "_addr",
          "type": "address"
        },
        {
          "name": "_nickname",
          "type": "string"
        },
        {
          "name": "_avatar",
          "type": "string"
        },
        {
          "name": "_payload",
          "type": "string"
        }
      ],
      "name": "newUserFrom",
      "outputs": [],
      "payable": false,
      "stateMutability": "nonpayable",
      "type": "function"
    },
    {
      "constant": false,
      "inputs": [
        {
          "name": "_nickname",
          "type": "string"
        },
        {
          "name": "_avatar",
          "type": "string"
        },
        {
          "name": "_payload",
          "type": "string"
        }
      ],
      "name": "newUser",
      "outputs": [],
      "payable": false,
      "stateMutability": "nonpayable",
      "type": "function"
    },
    {
      "constant": true,
      "inputs": [
        {
          "name": "_addr",
          "type": "address"
        }
      ],
      "name": "getNicknameByAddress",
      "outputs": [
        {
          "name": "",
          "type": "string"
        }
      ],
      "payable": false,
      "stateMutability": "view",
      "type": "function"
    },
    {
      "constant": false,
      "inputs": [
        {
          "name": "_newNickname",
          "type": "string"
        }
      ],
      "name": "setNickname",
      "outputs": [],
      "payable": false,
      "stateMutability": "nonpayable",
      "type": "function"
    },
    {
      "constant": true,
      "inputs": [
        {
          "name": "_nickname",
          "type": "string"
        }
      ],
      "name": "getAddressByNickname",
      "outputs": [
        {
          "name": "",
          "type": "address"
        }
      ],
      "payable": false,
      "stateMutability": "view",
      "type": "function"
    },
    {
      "constant": true,
      "inputs": [
        {
          "name": "_addr",
          "type": "address"
        }
      ],
      "name": "getAvatarByAddress",
      "outputs": [
        {
          "name": "",
          "type": "string"
        }
      ],
      "payable": false,
      "stateMutability": "view",
      "type": "function"
    },
    {
      "constant": true,
      "inputs": [
        {
          "name": "_nickname",
          "type": "string"
        }
      ],
      "name": "getAvatarByNickname",
      "outputs": [
        {
          "name": "",
          "type": "string"
        }
      ],
      "payable": false,
      "stateMutability": "view",
      "type": "function"
    },
    {
      "constant": false,
      "inputs": [
        {
          "name": "_avatar",
          "type": "string"
        }
      ],
      "name": "setAvatar",
      "outputs": [],
      "payable": false,
      "stateMutability": "nonpayable",
      "type": "function"
    },
    {
      "constant": false,
      "inputs": [
        {
          "name": "_addr",
          "type": "address"
        },
        {
          "name": "_avatar",
          "type": "string"
        }
      ],
      "name": "setAvatarFrom",
      "outputs": [],
      "payable": false,
      "stateMutability": "nonpayable",
      "type": "function"
    },
    {
      "constant": false,
      "inputs": [
        {
          "name": "_addr",
          "type": "address"
        },
        {
          "name": "_payload",
          "type": "string"
        }
      ],
      "name": "setPayloadFrom",
      "outputs": [],
      "payable": false,
      "stateMutability": "nonpayable",
      "type": "function"
    },
    {
      "constant": false,
      "inputs": [
        {
          "name": "_payload",
          "type": "string"
        }
      ],
      "name": "setPayload",
      "outputs": [],
      "payable": false,
      "stateMutability": "nonpayable",
      "type": "function"
    },
    {
      "constant": true,
      "inputs": [
        {
          "name": "_addr",
          "type": "address"
        }
      ],
      "name": "getPayloadFrom",
      "outputs": [
        {
          "name": "",
          "type": "string"
        }
      ],
      "payable": false,
      "stateMutability": "view",
      "type": "function"
    },
    {
      "constant": true,
      "inputs": [
        {
          "name": "_nickname",
          "type": "string"
        }
      ],
      "name": "nicknameIsFree",
      "outputs": [
        {
          "name": "",
          "type": "bool"
        }
      ],
      "payable": false,
      "stateMutability": "view",
      "type": "function"
    },
    {
      "constant": false,
      "inputs": [
        {
          "name": "_addr",
          "type": "address"
        }
      ],
      "name": "removeUser",
      "outputs": [],
      "payable": false,
      "stateMutability": "nonpayable",
      "type": "function"
    }
  ],
  "bytecode": "0x6080604052336000806101000a81548173ffffffffffffffffffffffffffffffffffffffff021916908373ffffffffffffffffffffffffffffffffffffffff160217905550612275806100536000396000f30060806040526004361061011d576000357c0100000000000000000000000000000000000000000000000000000000900463ffffffff168063041c0d681461012257806306fdde03146101a35780631c5d9faa146102335780631d5ea3791461029c57806320cc6889146103b1578063215cc0311461049357806331085c5f1461054f5780634646f62a146105f85780636ec5239f14610681578063715018a6146106ea5780638129fc1c146107015780638da5cb5b146107185780638f32d59b1461076f578063985751881461079e578063b013f637146107e1578063c0bac1a81461089d578063e1ad769914610964578063eea4b1ad146109cd578063f2fde38b14610a56578063f5df661814610a99578063fd2ce18e14610b8e575b600080fd5b34801561012e57600080fd5b50610189600480360381019080803590602001908201803590602001908080601f0160208091040260200160405190810160405280939291908181526020018383808284378201915050505050509192919290505050610c4a565b604051808215151515815260200191505060405180910390f35b3480156101af57600080fd5b506101b8610cb1565b6040518080602001828103825283818151815260200191508051906020019080838360005b838110156101f85780820151818401526020810190506101dd565b50505050905090810190601f1680156102255780820380516001836020036101000a031916815260200191505b509250505060405180910390f35b34801561023f57600080fd5b5061029a600480360381019080803590602001908201803590602001908080601f0160208091040260200160405190810160405280939291908181526020018383808284378201915050505050509192919290505050610cea565b005b3480156102a857600080fd5b506103af600480360381019080803573ffffffffffffffffffffffffffffffffffffffff169060200190929190803590602001908201803590602001908080601f0160208091040260200160405190810160405280939291908181526020018383808284378201915050505050509192919290803590602001908201803590602001908080601f0160208091040260200160405190810160405280939291908181526020018383808284378201915050505050509192919290803590602001908201803590602001908080601f0160208091040260200160405190810160405280939291908181526020018383808284378201915050505050509192919290505050610ebc565b005b3480156103bd57600080fd5b50610418600480360381019080803590602001908201803590602001908080601f01602080910402602001604051908101604052809392919081815260200183838082843782019150505050505091929192905050506110da565b6040518080602001828103825283818151815260200191508051906020019080838360005b8381101561045857808201518184015260208101905061043d565b50505050905090810190601f1680156104855780820380516001836020036101000a031916815260200191505b509250505060405180910390f35b34801561049f57600080fd5b506104d4600480360381019080803573ffffffffffffffffffffffffffffffffffffffff1690602001909291905050506110f4565b6040518080602001828103825283818151815260200191508051906020019080838360005b838110156105145780820151818401526020810190506104f9565b50505050905090810190601f1680156105415780820380516001836020036101000a031916815260200191505b509250505060405180910390f35b34801561055b57600080fd5b506105b6600480360381019080803590602001908201803590602001908080601f01602080910402602001604051908101604052809392919081815260200183838082843782019150505050505091929192905050506111d8565b604051808273ffffffffffffffffffffffffffffffffffffffff1673ffffffffffffffffffffffffffffffffffffffff16815260200191505060405180910390f35b34801561060457600080fd5b5061067f600480360381019080803573ffffffffffffffffffffffffffffffffffffffff169060200190929190803590602001908201803590602001908080601f016020809104026020016040519081016040528093929190818152602001838380828437820191505050505050919291929050505061127f565b005b34801561068d57600080fd5b506106e8600480360381019080803590602001908201803590602001908080601f01602080910402602001604051908101604052809392919081815260200183838082843782019150505050505091929192905050506112ed565b005b3480156106f657600080fd5b506106ff611347565b005b34801561070d57600080fd5b50610716611401565b005b34801561072457600080fd5b5061072d6117d0565b604051808273ffffffffffffffffffffffffffffffffffffffff1673ffffffffffffffffffffffffffffffffffffffff16815260200191505060405180910390f35b34801561077b57600080fd5b506107846117f9565b604051808215151515815260200191505060405180910390f35b3480156107aa57600080fd5b506107df600480360381019080803573ffffffffffffffffffffffffffffffffffffffff169060200190929190505050611850565b005b3480156107ed57600080fd5b50610822600480360381019080803573ffffffffffffffffffffffffffffffffffffffff169060200190929190505050611994565b6040518080602001828103825283818151815260200191508051906020019080838360005b83811015610862578082015181840152602081019050610847565b50505050905090810190601f16801561088f5780820380516001836020036101000a031916815260200191505b509250505060405180910390f35b3480156108a957600080fd5b5061094a600480360381019080803590602001908201803590602001908080601f0160208091040260200160405190810160405280939291908181526020018383808284378201915050505050509192919290803590602001908201803590602001908080601f0160208091040260200160405190810160405280939291908181526020018383808284378201915050505050509192919290505050611a78565b604051808215151515815260200191505060405180910390f35b34801561097057600080fd5b506109cb600480360381019080803590602001908201803590602001908080601f0160208091040260200160405190810160405280939291908181526020018383808284378201915050505050509192919290505050611b64565b005b3480156109d957600080fd5b50610a54600480360381019080803573ffffffffffffffffffffffffffffffffffffffff169060200190929190803590602001908201803590602001908080601f0160208091040260200160405190810160405280939291908181526020018383808284378201915050505050509192919290505050611bbe565b005b348015610a6257600080fd5b50610a97600480360381019080803573ffffffffffffffffffffffffffffffffffffffff169060200190929190505050611c2c565b005b348015610aa557600080fd5b50610b8c600480360381019080803590602001908201803590602001908080601f0160208091040260200160405190810160405280939291908181526020018383808284378201915050505050509192919290803590602001908201803590602001908080601f0160208091040260200160405190810160405280939291908181526020018383808284378201915050505050509192919290803590602001908201803590602001908080601f0160208091040260200160405190810160405280939291908181526020018383808284378201915050505050509192919290505050611c4b565b005b348015610b9a57600080fd5b50610bcf600480360381019080803573ffffffffffffffffffffffffffffffffffffffff169060200190929190505050611e55565b6040518080602001828103825283818151815260200191508051906020019080838360005b83811015610c0f578082015181840152602081019050610bf4565b50505050905090810190601f168015610c3c5780820380516001836020036101000a031916815260200191505b509250505060405180910390f35b600080610c56836111d8565b9050600260008273ffffffffffffffffffffffffffffffffffffffff1673ffffffffffffffffffffffffffffffffffffffff16815260200190815260200160002060030160009054906101000a900460ff1615915050919050565b6040805190810160405280600881526020017f50726f66696c657300000000000000000000000000000000000000000000000081525081565b610cf381610c4a565b1515610cfe57600080fd5b60036000610d0b33611994565b6040518082805190602001908083835b602083101515610d405780518252602082019150602081019050602083039250610d1b565b6001836020036101000a03801982511681845116808217855250505050505090500191505060405180910390206000191660001916815260200190815260200160002060006101000a81549073ffffffffffffffffffffffffffffffffffffffff02191690553360036000836040518082805190602001908083835b602083101515610de15780518252602082019150602081019050602083039250610dbc565b6001836020036101000a03801982511681845116808217855250505050505090500191505060405180910390206000191660001916815260200190815260200160002060006101000a81548173ffffffffffffffffffffffffffffffffffffffff021916908373ffffffffffffffffffffffffffffffffffffffff16021790555080600260003373ffffffffffffffffffffffffffffffffffffffff1673ffffffffffffffffffffffffffffffffffffffff1681526020019081526020016000206000019080519060200190610eb89291906120dc565b5050565b610ec46117f9565b1515610ecf57600080fd5b610ed883610c4a565b1515610ee357600080fd5b600260008573ffffffffffffffffffffffffffffffffffffffff1673ffffffffffffffffffffffffffffffffffffffff16815260200190815260200160002060030160009054906101000a900460ff1615156110d45760806040519081016040528084815260200183815260200182815260200160011515815250600260008673ffffffffffffffffffffffffffffffffffffffff1673ffffffffffffffffffffffffffffffffffffffff1681526020019081526020016000206000820151816000019080519060200190610fb992919061215c565b506020820151816001019080519060200190610fd692919061215c565b506040820151816002019080519060200190610ff392919061215c565b5060608201518160030160006101000a81548160ff0219169083151502179055509050508360036000856040518082805190602001908083835b602083101515611052578051825260208201915060208101905060208303925061102d565b6001836020036101000a03801982511681845116808217855250505050505090500191505060405180910390206000191660001916815260200190815260200160002060006101000a81548173ffffffffffffffffffffffffffffffffffffffff021916908373ffffffffffffffffffffffffffffffffffffffff1602179055505b50505050565b60606110ed6110e8836111d8565b6110f4565b9050919050565b6060600260008373ffffffffffffffffffffffffffffffffffffffff1673ffffffffffffffffffffffffffffffffffffffff1681526020019081526020016000206001018054600181600116156101000203166002900480601f0160208091040260200160405190810160405280929190818152602001828054600181600116156101000203166002900480156111cc5780601f106111a1576101008083540402835291602001916111cc565b820191906000526020600020905b8154815290600101906020018083116111af57829003601f168201915b50505050509050919050565b600060036000836040518082805190602001908083835b60208310151561121457805182526020820191506020810190506020830392506111ef565b6001836020036101000a03801982511681845116808217855250505050505090500191505060405180910390206000191660001916815260200190815260200160002060009054906101000a900473ffffffffffffffffffffffffffffffffffffffff169050919050565b6112876117f9565b151561129257600080fd5b80600260008473ffffffffffffffffffffffffffffffffffffffff1673ffffffffffffffffffffffffffffffffffffffff16815260200190815260200160002060010190805190602001906112e89291906120dc565b505050565b80600260003373ffffffffffffffffffffffffffffffffffffffff1673ffffffffffffffffffffffffffffffffffffffff16815260200190815260200160002060010190805190602001906113439291906120dc565b5050565b61134f6117f9565b151561135a57600080fd5b6000809054906101000a900473ffffffffffffffffffffffffffffffffffffffff1673ffffffffffffffffffffffffffffffffffffffff167ff8df31144d9c2f0f6b59d69b8b98abd5459d07f2742c4df920b25aae33c6482060405160405180910390a260008060006101000a81548173ffffffffffffffffffffffffffffffffffffffff021916908373ffffffffffffffffffffffffffffffffffffffff160217905550565b6040805190810160405280600881526020017f50726f66696c65730000000000000000000000000000000000000000000000008152506040805190810160405280600181526020017f30000000000000000000000000000000000000000000000000000000000000008152506114ac826040805190810160405280600b81526020017f696e697469616c697a6564000000000000000000000000000000000000000000815250611f39565b6114b68282611f39565b7fdd117a11c22118c9dee4b5a67ce578bc44529dce21ee0ccc439588fbb9fb4ea38282604051808060200180602001838103835285818151815260200191508051906020019080838360005b8381101561151d578082015181840152602081019050611502565b50505050905090810190601f16801561154a5780820380516001836020036101000a031916815260200191505b50838103825284818151815260200191508051906020019080838360005b83811015611583578082015181840152602081019050611568565b50505050905090810190601f1680156115b05780820380516001836020036101000a031916815260200191505b5094505050505060405180910390a1600180836040518082805190602001908083835b6020831015156115f857805182526020820191506020810190506020830392506115d3565b6001836020036101000a0380198251168184511680821785525050505050509050019150509081526020016040518091039020826040518082805190602001908083835b602083101515611661578051825260208201915060208101905060208303925061163c565b6001836020036101000a038019825116818451168082178552505050505050905001915050908152602001604051809103902060006101000a81548160ff021916908315150217905550600180836040518082805190602001908083835b6020831015156116e457805182526020820191506020810190506020830392506116bf565b6001836020036101000a03801982511681845116808217855250505050505090500191505090815260200160405180910390206040805190810160405280600b81526020017f696e697469616c697a65640000000000000000000000000000000000000000008152506040518082805190602001908083835b602083101515611782578051825260208201915060208101905060208303925061175d565b6001836020036101000a038019825116818451168082178552505050505050905001915050908152602001604051809103902060006101000a81548160ff0219169083151502179055505050565b60008060009054906101000a900473ffffffffffffffffffffffffffffffffffffffff16905090565b60008060009054906101000a900473ffffffffffffffffffffffffffffffffffffffff1673ffffffffffffffffffffffffffffffffffffffff163373ffffffffffffffffffffffffffffffffffffffff1614905090565b6118586117f9565b151561186357600080fd5b6003600061187083611994565b6040518082805190602001908083835b6020831015156118a55780518252602082019150602081019050602083039250611880565b6001836020036101000a03801982511681845116808217855250505050505090500191505060405180910390206000191660001916815260200190815260200160002060006101000a81549073ffffffffffffffffffffffffffffffffffffffff0219169055600260008273ffffffffffffffffffffffffffffffffffffffff1673ffffffffffffffffffffffffffffffffffffffff1681526020019081526020016000206000808201600061195b91906121dc565b60018201600061196b91906121dc565b60028201600061197b91906121dc565b6003820160006101000a81549060ff0219169055505050565b6060600260008373ffffffffffffffffffffffffffffffffffffffff1673ffffffffffffffffffffffffffffffffffffffff1681526020019081526020016000206000018054600181600116156101000203166002900480601f016020809104026020016040519081016040528092919081815260200182805460018160011615610100020316600290048015611a6c5780601f10611a4157610100808354040283529160200191611a6c565b820191906000526020600020905b815481529060010190602001808311611a4f57829003601f168201915b50505050509050919050565b60006001836040518082805190602001908083835b602083101515611ab25780518252602082019150602081019050602083039250611a8d565b6001836020036101000a0380198251168184511680821785525050505050509050019150509081526020016040518091039020826040518082805190602001908083835b602083101515611b1b5780518252602082019150602081019050602083039250611af6565b6001836020036101000a038019825116818451168082178552505050505050905001915050908152602001604051809103902060009054906101000a900460ff16905092915050565b80600260003373ffffffffffffffffffffffffffffffffffffffff1673ffffffffffffffffffffffffffffffffffffffff1681526020019081526020016000206002019080519060200190611bba9291906120dc565b5050565b611bc66117f9565b1515611bd157600080fd5b80600260008473ffffffffffffffffffffffffffffffffffffffff1673ffffffffffffffffffffffffffffffffffffffff1681526020019081526020016000206002019080519060200190611c279291906120dc565b505050565b611c346117f9565b1515611c3f57600080fd5b611c4881611fe2565b50565b611c5483610c4a565b1515611c5f57600080fd5b600260003373ffffffffffffffffffffffffffffffffffffffff1673ffffffffffffffffffffffffffffffffffffffff16815260200190815260200160002060030160009054906101000a900460ff161515611e505760806040519081016040528084815260200183815260200182815260200160011515815250600260003373ffffffffffffffffffffffffffffffffffffffff1673ffffffffffffffffffffffffffffffffffffffff1681526020019081526020016000206000820151816000019080519060200190611d3592919061215c565b506020820151816001019080519060200190611d5292919061215c565b506040820151816002019080519060200190611d6f92919061215c565b5060608201518160030160006101000a81548160ff0219169083151502179055509050503360036000856040518082805190602001908083835b602083101515611dce5780518252602082019150602081019050602083039250611da9565b6001836020036101000a03801982511681845116808217855250505050505090500191505060405180910390206000191660001916815260200190815260200160002060006101000a81548173ffffffffffffffffffffffffffffffffffffffff021916908373ffffffffffffffffffffffffffffffffffffffff1602179055505b505050565b6060600260008373ffffffffffffffffffffffffffffffffffffffff1673ffffffffffffffffffffffffffffffffffffffff1681526020019081526020016000206002018054600181600116156101000203166002900480601f016020809104026020016040519081016040528092919081815260200182805460018160011615610100020316600290048015611f2d5780601f10611f0257610100808354040283529160200191611f2d565b820191906000526020600020905b815481529060010190602001808311611f1057829003601f168201915b50505050509050919050565b611f438282611a78565b151515611fde576040517f08c379a00000000000000000000000000000000000000000000000000000000081526004018080602001828103825260328152602001807f52657175657374656420746172676574206d6967726174696f6e20494420686181526020017f7320616c7265616479206265656e2072756e000000000000000000000000000081525060400191505060405180910390fd5b5050565b600073ffffffffffffffffffffffffffffffffffffffff168173ffffffffffffffffffffffffffffffffffffffff161415151561201e57600080fd5b8073ffffffffffffffffffffffffffffffffffffffff166000809054906101000a900473ffffffffffffffffffffffffffffffffffffffff1673ffffffffffffffffffffffffffffffffffffffff167f8be0079c531659141344cd1fd0a4f28419497f9722a3daafe3b4186f6b6457e060405160405180910390a3806000806101000a81548173ffffffffffffffffffffffffffffffffffffffff021916908373ffffffffffffffffffffffffffffffffffffffff16021790555050565b828054600181600116156101000203166002900490600052602060002090601f016020900481019282601f1061211d57805160ff191683800117855561214b565b8280016001018555821561214b579182015b8281111561214a57825182559160200191906001019061212f565b5b5090506121589190612224565b5090565b828054600181600116156101000203166002900490600052602060002090601f016020900481019282601f1061219d57805160ff19168380011785556121cb565b828001600101855582156121cb579182015b828111156121ca5782518255916020019190600101906121af565b5b5090506121d89190612224565b5090565b50805460018160011615610100020316600290046000825580601f106122025750612221565b601f0160209004906000526020600020908101906122209190612224565b5b50565b61224691905b8082111561224257600081600090555060010161222a565b5090565b905600a165627a7a723058204b39cb445e2b4618c007d3554251a32ce6cff48a7dcae6c2b5e50ba4385e6def0029",
  "source": "pragma solidity ^0.4.24;\n\nimport \"zos-lib/contracts/migrations/Migratable.sol\";\nimport \"openzeppelin-solidity/contracts/ownership/Ownable.sol\";\n\ncontract Profiles is Ownable, Migratable {\n    string public constant name = \"Profiles\";\n\n    struct User {\n        string nickname;\n        string avatar;\n        string payload;\n        bool isEntity;\n    }\n\n    mapping(address => User) private users;\n    mapping(bytes32 => address) private addresses;\n\n    function initialize() isInitializer(\"Profiles\", \"0\") public {\n    }\n\n    function newUserFrom(address _addr, string _nickname, string _avatar, string _payload) public onlyOwner {\n        require(nicknameIsFree(_nickname));\n\n        if (!users[_addr].isEntity) {\n            users[_addr] = User(_nickname, _avatar, _payload, true);\n            addresses[keccak256(_nickname)] = _addr;\n        }\n    }\n\n    function newUser(string _nickname, string _avatar, string _payload) public {\n        require(nicknameIsFree(_nickname));\n\n        if (!users[msg.sender].isEntity) {\n            users[msg.sender] = User(_nickname, _avatar, _payload, true);\n            addresses[keccak256(_nickname)] = msg.sender;\n        }\n    }\n\n    function getNicknameByAddress(address _addr) public constant returns(string) {\n        return users[_addr].nickname;\n    }\n\n    function setNickname(string _newNickname) public {\n        require(nicknameIsFree(_newNickname));\n\n        delete addresses[keccak256(getNicknameByAddress(msg.sender))];\n\n        addresses[keccak256(_newNickname)] = msg.sender;\n        users[msg.sender].nickname = _newNickname;\n    }\n\n    function getAddressByNickname(string _nickname) public constant returns(address) {\n        return addresses[keccak256(_nickname)];\n    }\n\n    function getAvatarByAddress(address _addr) public constant returns(string) {\n        return users[_addr].avatar;\n    }\n\n    function getAvatarByNickname(string _nickname) public constant returns(string) {\n        return getAvatarByAddress(getAddressByNickname(_nickname));\n    }\n\n    function setAvatar(string _avatar) public {\n        users[msg.sender].avatar = _avatar;\n    }\n\n    function setAvatarFrom(address _addr, string _avatar) public onlyOwner {\n        users[_addr].avatar = _avatar;\n    }\n\n    function setPayloadFrom(address _addr, string _payload) public onlyOwner {\n        users[_addr].payload = _payload;\n    }\n\n    function setPayload(string _payload) public {\n        users[msg.sender].payload = _payload;\n    }\n\n    function getPayloadFrom(address _addr) public constant returns(string) {\n        return users[_addr].payload;\n    }\n\n    function nicknameIsFree(string _nickname) public constant returns(bool) {\n        var _addr = getAddressByNickname(_nickname);\n        return !(users[_addr].isEntity);\n    }\n\n    function removeUser(address _addr) public onlyOwner {\n        delete addresses[keccak256(getNicknameByAddress(_addr))];\n        delete users[_addr];\n    }\n}",
  "sourcePath": "/Users/user/WebstormProjects/ineurobrain-web/contracts/ProfilesSC/contracts/Profiles.sol",
  "compiler": {
    "name": "solc",
    "version": "0.4.24+commit.e67f0147.Emscripten.clang"
  },
  "schemaVersion": "2.0.1",
  "updatedAt": "2018-10-05T03:30:57.795Z"
}