{
  "contractName": "Messenger",
  "abi": [
    {
      "constant": true,
      "inputs": [
        {
          "name": "contractName",
          "type": "string"
        },
        {
          "name": "migrationId",
          "type": "string"
        }
      ],
      "name": "isMigrated",
      "outputs": [
        {
          "name": "",
          "type": "bool"
        }
      ],
      "payable": false,
      "stateMutability": "view",
      "type": "function"
    },
    {
      "anonymous": false,
      "inputs": [
        {
          "indexed": false,
          "name": "contractName",
          "type": "string"
        },
        {
          "indexed": false,
          "name": "migrationId",
          "type": "string"
        }
      ],
      "name": "Migrated",
      "type": "event"
    },
    {
      "constant": false,
      "inputs": [],
      "name": "initialize",
      "outputs": [],
      "payable": false,
      "stateMutability": "nonpayable",
      "type": "function"
    },
    {
      "constant": false,
      "inputs": [
        {
          "name": "_timestamp",
          "type": "uint256"
        },
        {
          "name": "_msg",
          "type": "string"
        }
      ],
      "name": "setMessage",
      "outputs": [],
      "payable": false,
      "stateMutability": "nonpayable",
      "type": "function"
    },
    {
      "constant": true,
      "inputs": [
        {
          "name": "_addr",
          "type": "address"
        },
        {
          "name": "_timestamp",
          "type": "uint256"
        }
      ],
      "name": "getMessageByTimestamp",
      "outputs": [
        {
          "name": "",
          "type": "uint256"
        },
        {
          "name": "",
          "type": "string"
        }
      ],
      "payable": false,
      "stateMutability": "view",
      "type": "function"
    },
    {
      "constant": true,
      "inputs": [
        {
          "name": "_addr",
          "type": "address"
        },
        {
          "name": "_index",
          "type": "uint256"
        }
      ],
      "name": "getMessageByIndex",
      "outputs": [
        {
          "name": "",
          "type": "uint256"
        },
        {
          "name": "",
          "type": "string"
        }
      ],
      "payable": false,
      "stateMutability": "view",
      "type": "function"
    }
  ],
  "bytecode": "0x608060405234801561001057600080fd5b50610e4a806100206000396000f30060806040526004361061006d576000357c0100000000000000000000000000000000000000000000000000000000900463ffffffff1680631b38b9ab146100725780634e6bd1c01461013f578063648345c81461020c5780638129fc1c1461027f578063c0bac1a814610296575b600080fd5b34801561007e57600080fd5b506100bd600480360381019080803573ffffffffffffffffffffffffffffffffffffffff1690602001909291908035906020019092919050505061035d565b6040518083815260200180602001828103825283818151815260200191508051906020019080838360005b838110156101035780820151818401526020810190506100e8565b50505050905090810190601f1680156101305780820380516001836020036101000a031916815260200191505b50935050505060405180910390f35b34801561014b57600080fd5b5061018a600480360381019080803573ffffffffffffffffffffffffffffffffffffffff169060200190929190803590602001909291905050506104a9565b6040518083815260200180602001828103825283818151815260200191508051906020019080838360005b838110156101d05780820151818401526020810190506101b5565b50505050905090810190601f1680156101fd5780820380516001836020036101000a031916815260200191505b50935050505060405180910390f35b34801561021857600080fd5b5061027d60048036038101908080359060200190929190803590602001908201803590602001908080601f01602080910402602001604051908101604052809392919081815260200183838082843782019150505050505091929192905050506105f5565b005b34801561028b57600080fd5b50610294610814565b005b3480156102a257600080fd5b50610343600480360381019080803590602001908201803590602001908080601f0160208091040260200160405190810160405280939291908181526020018383808284378201915050505050509192919290803590602001908201803590602001908080601f0160208091040260200160405190810160405280939291908181526020018383808284378201915050505050509192919290505050610be5565b604051808215151515815260200191505060405180910390f35b6000606082600460008673ffffffffffffffffffffffffffffffffffffffff1673ffffffffffffffffffffffffffffffffffffffff1681526020019081526020016000206000600360008873ffffffffffffffffffffffffffffffffffffffff1673ffffffffffffffffffffffffffffffffffffffff1681526020019081526020016000206000878152602001908152602001600020548152602001908152602001600020808054600181600116156101000203166002900480601f0160208091040260200160405190810160405280929190818152602001828054600181600116156101000203166002900480156104975780601f1061046c57610100808354040283529160200191610497565b820191906000526020600020905b81548152906001019060200180831161047a57829003601f168201915b50505050509050915091509250929050565b60006060600260003373ffffffffffffffffffffffffffffffffffffffff1673ffffffffffffffffffffffffffffffffffffffff168152602001908152602001600020600084815260200190815260200160002054600460003373ffffffffffffffffffffffffffffffffffffffff1673ffffffffffffffffffffffffffffffffffffffff1681526020019081526020016000206000858152602001908152602001600020808054600181600116156101000203166002900480601f0160208091040260200160405190810160405280929190818152602001828054600181600116156101000203166002900480156105e35780601f106105b8576101008083540402835291602001916105e3565b820191906000526020600020905b8154815290600101906020018083116105c657829003601f168201915b50505050509050915091509250929050565b600160003373ffffffffffffffffffffffffffffffffffffffff1673ffffffffffffffffffffffffffffffffffffffff1681526020019081526020016000206000815480929190600101919050555081600260003373ffffffffffffffffffffffffffffffffffffffff1673ffffffffffffffffffffffffffffffffffffffff1681526020019081526020016000206000600160003373ffffffffffffffffffffffffffffffffffffffff1673ffffffffffffffffffffffffffffffffffffffff1681526020019081526020016000205481526020019081526020016000208190555080600460003373ffffffffffffffffffffffffffffffffffffffff1673ffffffffffffffffffffffffffffffffffffffff1681526020019081526020016000206000600160003373ffffffffffffffffffffffffffffffffffffffff1673ffffffffffffffffffffffffffffffffffffffff168152602001908152602001600020548152602001908152602001600020908051906020019061077b929190610d79565b50600160003373ffffffffffffffffffffffffffffffffffffffff1673ffffffffffffffffffffffffffffffffffffffff16815260200190815260200160002054600360003373ffffffffffffffffffffffffffffffffffffffff1673ffffffffffffffffffffffffffffffffffffffff1681526020019081526020016000206000848152602001908152602001600020819055505050565b6040805190810160405280600981526020017f4d657373656e67657200000000000000000000000000000000000000000000008152506040805190810160405280600181526020017f30000000000000000000000000000000000000000000000000000000000000008152506108bf826040805190810160405280600b81526020017f696e697469616c697a6564000000000000000000000000000000000000000000815250610cd0565b6108c98282610cd0565b7fdd117a11c22118c9dee4b5a67ce578bc44529dce21ee0ccc439588fbb9fb4ea38282604051808060200180602001838103835285818151815260200191508051906020019080838360005b83811015610930578082015181840152602081019050610915565b50505050905090810190601f16801561095d5780820380516001836020036101000a031916815260200191505b50838103825284818151815260200191508051906020019080838360005b8381101561099657808201518184015260208101905061097b565b50505050905090810190601f1680156109c35780820380516001836020036101000a031916815260200191505b5094505050505060405180910390a160016000836040518082805190602001908083835b602083101515610a0c57805182526020820191506020810190506020830392506109e7565b6001836020036101000a0380198251168184511680821785525050505050509050019150509081526020016040518091039020826040518082805190602001908083835b602083101515610a755780518252602082019150602081019050602083039250610a50565b6001836020036101000a038019825116818451168082178552505050505050905001915050908152602001604051809103902060006101000a81548160ff02191690831515021790555060016000836040518082805190602001908083835b602083101515610af95780518252602082019150602081019050602083039250610ad4565b6001836020036101000a03801982511681845116808217855250505050505090500191505090815260200160405180910390206040805190810160405280600b81526020017f696e697469616c697a65640000000000000000000000000000000000000000008152506040518082805190602001908083835b602083101515610b975780518252602082019150602081019050602083039250610b72565b6001836020036101000a038019825116818451168082178552505050505050905001915050908152602001604051809103902060006101000a81548160ff0219169083151502179055505050565b600080836040518082805190602001908083835b602083101515610c1e5780518252602082019150602081019050602083039250610bf9565b6001836020036101000a0380198251168184511680821785525050505050509050019150509081526020016040518091039020826040518082805190602001908083835b602083101515610c875780518252602082019150602081019050602083039250610c62565b6001836020036101000a038019825116818451168082178552505050505050905001915050908152602001604051809103902060009054906101000a900460ff16905092915050565b610cda8282610be5565b151515610d75576040517f08c379a00000000000000000000000000000000000000000000000000000000081526004018080602001828103825260328152602001807f52657175657374656420746172676574206d6967726174696f6e20494420686181526020017f7320616c7265616479206265656e2072756e000000000000000000000000000081525060400191505060405180910390fd5b5050565b828054600181600116156101000203166002900490600052602060002090601f016020900481019282601f10610dba57805160ff1916838001178555610de8565b82800160010185558215610de8579182015b82811115610de7578251825591602001919060010190610dcc565b5b509050610df59190610df9565b5090565b610e1b91905b80821115610e17576000816000905550600101610dff565b5090565b905600a165627a7a72305820af0f0e1744f54f536c013b3e20cde389c1d353ca464059fae509bbc76990921a0029",
  "source": "pragma solidity 0.4.24;\n\nimport \"zos-lib/contracts/migrations/Migratable.sol\";\n\ncontract Messenger is Migratable {\n\n  mapping(address => uint) numMessages;\n  mapping(address => mapping(uint => uint)) indexMessages;\n  mapping(address => mapping(uint => uint)) timestamps;\n  mapping(address => mapping(uint => string)) messages;\n\n  function initialize() isInitializer(\"Messenger\", \"0\") public {\n  }\n\n  function setMessage(uint _timestamp, string _msg) public {\n    numMessages[msg.sender]++;\n\n    indexMessages[msg.sender][numMessages[msg.sender]] = _timestamp;\n    messages[msg.sender][numMessages[msg.sender]] = _msg;\n    timestamps[msg.sender][_timestamp] = numMessages[msg.sender];\n  }\n\n  function getMessageByTimestamp(address _addr, uint _timestamp) view public returns (uint, string) {\n    return (_timestamp, messages[_addr][timestamps[_addr][_timestamp]]);\n  }\n\n  function getMessageByIndex(address _addr, uint _index) view public returns (uint, string) {\n    return (indexMessages[msg.sender][_index], messages[msg.sender][_index]);\n  }\n}\n",
  "sourcePath": "/Users/user/WebstormProjects/ineurobrain-contracts/MessengerSC/contracts/Messanger.sol",
  "compiler": {
    "name": "solc",
    "version": "0.4.24+commit.e67f0147.Emscripten.clang"
  },
  "schemaVersion": "2.0.1",
  "updatedAt": "2018-10-09T14:30:24.936Z"
}